{
  "contractName": "Auction",
  "abi": [
    {
      "constant": true,
      "inputs": [],
      "name": "_SysTime",
      "outputs": [
        {
          "name": "",
          "type": "uint256"
        }
      ],
      "payable": false,
      "stateMutability": "view",
      "type": "function",
      "signature": "0x8d4ea4d6"
    },
    {
      "inputs": [],
      "payable": false,
      "stateMutability": "nonpayable",
      "type": "constructor",
      "signature": "constructor"
    },
    {
      "anonymous": false,
      "inputs": [
        {
          "indexed": false,
          "name": "_initialBid",
          "type": "uint256"
        },
        {
          "indexed": false,
          "name": "_videoDuration",
          "type": "uint256"
        },
        {
          "indexed": false,
          "name": "_videoResolution",
          "type": "string"
        },
        {
          "indexed": false,
          "name": "_videoName",
          "type": "string"
        },
        {
          "indexed": false,
          "name": "_videoID",
          "type": "string"
        }
      ],
      "name": "StartAuctionEvent",
      "type": "event",
      "signature": "0x22ee4ac3b50c474bfad119e408570469bd10e4c63ba2e5d85f3b97932540d9ad"
    },
    {
      "anonymous": false,
      "inputs": [
        {
          "indexed": false,
          "name": "end",
          "type": "string"
        }
      ],
      "name": "EndAuctionEvent_by_owner",
      "type": "event",
      "signature": "0x96c95ecc9ed4a84d7733d646e6084202feea634a7faa436f1681a36847e48823"
    },
    {
      "anonymous": false,
      "inputs": [
        {
          "indexed": false,
          "name": "end",
          "type": "string"
        }
      ],
      "name": "EndAuctionEvent_by_time",
      "type": "event",
      "signature": "0xf64cc1ae82e158aba279c89438e9d426c7b4f1d436976b9de86818ab236ccbdb"
    },
    {
      "anonymous": false,
      "inputs": [
        {
          "indexed": false,
          "name": "end",
          "type": "string"
        }
      ],
      "name": "EndAuctionEvent_by_system",
      "type": "event",
      "signature": "0x33ef1d10db5a3a8df1c73f18eebab8a147f093f4ee3fe65ba48bffc5e79ce07f"
    },
    {
      "constant": false,
      "inputs": [
        {
          "name": "_initialBid",
          "type": "uint256"
        },
        {
          "name": "_videoDuration",
          "type": "uint256"
        },
        {
          "name": "_videoResolution",
          "type": "string"
        },
        {
          "name": "_videoName",
          "type": "string"
        },
        {
          "name": "_videoID",
          "type": "string"
        }
      ],
      "name": "startAuction",
      "outputs": [],
      "payable": false,
      "stateMutability": "nonpayable",
      "type": "function",
      "signature": "0xb7cdd3cd"
    },
    {
      "constant": false,
      "inputs": [],
      "name": "auctionEnded_byOwner",
      "outputs": [
        {
          "name": "",
          "type": "address"
        },
        {
          "name": "",
          "type": "uint256"
        }
      ],
      "payable": false,
      "stateMutability": "nonpayable",
      "type": "function",
      "signature": "0xaa546f6e"
    },
    {
      "constant": false,
      "inputs": [
        {
          "name": "auctionDuration",
          "type": "uint256"
        }
      ],
      "name": "auctionEnded_byTime",
      "outputs": [
        {
          "name": "",
          "type": "address"
        },
        {
          "name": "",
          "type": "uint256"
        }
      ],
      "payable": false,
      "stateMutability": "nonpayable",
      "type": "function",
      "signature": "0x63b34566"
    },
    {
      "constant": false,
      "inputs": [],
      "name": "auctionEnded_bySystemTime",
      "outputs": [
        {
          "name": "",
          "type": "address"
        },
        {
          "name": "",
          "type": "uint256"
        }
      ],
      "payable": false,
      "stateMutability": "nonpayable",
      "type": "function",
      "signature": "0x8e9255b5"
    },
    {
      "constant": true,
      "inputs": [],
      "name": "getRemainingTime",
      "outputs": [
        {
          "name": "",
          "type": "uint256"
        }
      ],
      "payable": false,
      "stateMutability": "view",
      "type": "function",
      "signature": "0xefb98bcf"
    },
    {
      "constant": false,
      "inputs": [
        {
          "name": "_bidPrice",
          "type": "uint256"
        }
      ],
      "name": "submitBid",
      "outputs": [],
      "payable": false,
      "stateMutability": "nonpayable",
      "type": "function",
      "signature": "0x74bdda15"
    },
    {
      "constant": true,
      "inputs": [],
      "name": "getTopBid",
      "outputs": [
        {
          "name": "",
          "type": "address"
        },
        {
          "name": "",
          "type": "uint256"
        }
      ],
      "payable": false,
      "stateMutability": "view",
      "type": "function",
      "signature": "0xe14ae9e0"
    },
    {
      "constant": true,
      "inputs": [],
      "name": "getNumberOfBids",
      "outputs": [
        {
          "name": "",
          "type": "uint256"
        }
      ],
      "payable": false,
      "stateMutability": "view",
      "type": "function",
      "signature": "0xa6e6d739"
    },
    {
      "constant": true,
      "inputs": [],
      "name": "getAllBids",
      "outputs": [
        {
          "name": "",
          "type": "address[]"
        },
        {
          "name": "",
          "type": "uint256[]"
        }
      ],
      "payable": false,
      "stateMutability": "view",
      "type": "function",
      "signature": "0x8d0f6da3"
    },
    {
      "constant": true,
      "inputs": [
        {
          "name": "index",
          "type": "uint256"
        }
      ],
      "name": "getBid",
      "outputs": [
        {
          "name": "",
          "type": "address"
        },
        {
          "name": "",
          "type": "uint256"
        }
      ],
      "payable": false,
      "stateMutability": "view",
      "type": "function",
      "signature": "0x3c889e6f"
    }
  ],
  "bytecode": "0x6080604052603c60045534801561001557600080fd5b50610f0c806100256000396000f3fe6080604052600436106100af576000357c0100000000000000000000000000000000000000000000000000000000900463ffffffff1680633c889e6f146100b457806363b345661461013657806374bdda15146101b85780638d0f6da3146101f35780638d4ea4d6146102a75780638e9255b5146102d2578063a6e6d73914610330578063aa546f6e1461035b578063b7cdd3cd146103b9578063e14ae9e0146105c3578063efb98bcf14610621575b600080fd5b3480156100c057600080fd5b506100ed600480360360208110156100d757600080fd5b810190808035906020019092919050505061064c565b604051808373ffffffffffffffffffffffffffffffffffffffff1673ffffffffffffffffffffffffffffffffffffffff1681526020018281526020019250505060405180910390f35b34801561014257600080fd5b5061016f6004803603602081101561015957600080fd5b81019080803590602001909291905050506106ba565b604051808373ffffffffffffffffffffffffffffffffffffffff1673ffffffffffffffffffffffffffffffffffffffff1681526020018281526020019250505060405180910390f35b3480156101c457600080fd5b506101f1600480360360208110156101db57600080fd5b8101908080359060200190929190505050610849565b005b3480156101ff57600080fd5b50610208610934565b604051808060200180602001838103835285818151815260200191508051906020019060200280838360005b8381101561024f578082015181840152602081019050610234565b50505050905001838103825284818151815260200191508051906020019060200280838360005b83811015610291578082015181840152602081019050610276565b5050505090500194505050505060405180910390f35b3480156102b357600080fd5b506102bc610a9e565b6040518082815260200191505060405180910390f35b3480156102de57600080fd5b506102e7610aa4565b604051808373ffffffffffffffffffffffffffffffffffffffff1673ffffffffffffffffffffffffffffffffffffffff1681526020018281526020019250505060405180910390f35b34801561033c57600080fd5b50610345610b80565b6040518082815260200191505060405180910390f35b34801561036757600080fd5b50610370610b8c565b604051808373ffffffffffffffffffffffffffffffffffffffff1673ffffffffffffffffffffffffffffffffffffffff1681526020018281526020019250505060405180910390f35b3480156103c557600080fd5b506105c1600480360360a08110156103dc57600080fd5b8101908080359060200190929190803590602001909291908035906020019064010000000081111561040d57600080fd5b82018360208201111561041f57600080fd5b8035906020019184600183028401116401000000008311171561044157600080fd5b91908080601f016020809104026020016040519081016040528093929190818152602001838380828437600081840152601f19601f820116905080830192505050505050509192919290803590602001906401000000008111156104a457600080fd5b8201836020820111156104b657600080fd5b803590602001918460018302840111640100000000831117156104d857600080fd5b91908080601f016020809104026020016040519081016040528093929190818152602001838380828437600081840152601f19601f8201169050808301925050505050505091929192908035906020019064010000000081111561053b57600080fd5b82018360208201111561054d57600080fd5b8035906020019184600183028401116401000000008311171561056f57600080fd5b91908080601f016020809104026020016040519081016040528093929190818152602001838380828437600081840152601f19601f820116905080830192505050505050509192919290505050610c07565b005b3480156105cf57600080fd5b506105d8610e48565b604051808373ffffffffffffffffffffffffffffffffffffffff1673ffffffffffffffffffffffffffffffffffffffff1681526020018281526020019250505060405180910390f35b34801561062d57600080fd5b50610636610ec3565b6040518082815260200191505060405180910390f35b60008060008381548110151561065e57fe5b906000526020600020906002020160000160009054906101000a900473ffffffffffffffffffffffffffffffffffffffff1660008481548110151561069f57fe5b90600052602060002090600202016001015491509150915091565b600080826003819055506003546004541115151561078c576040517f08c379a00000000000000000000000000000000000000000000000000000000081526004018080602001828103825260468152602001807f706c6561736520656e7465722061206475726174696f6e20746861742069732081526020017f686967686572207468656e207468652073797374656d2074696d65206f66206181526020017f756374696f6e000000000000000000000000000000000000000000000000000081525060600191505060405180910390fd5b6003546001540160028190555060025442111515610843577ff64cc1ae82e158aba279c89438e9d426c7b4f1d436976b9de86818ab236ccbdb6040518080602001828103825260228152602001807f61756374696f6e456e6465642062792074696d6520736574206279206f776e6581526020017f722000000000000000000000000000000000000000000000000000000000000081525060400191505060405180910390a161083a610e48565b91509150610844565b5b915091565b6000600160008054905003905060008181548110151561086557fe5b9060005260206000209060020201600101548211151561088457600080fd5b600060408051908101604052803373ffffffffffffffffffffffffffffffffffffffff168152602001848152509080600181540180825580915050906001820390600052602060002090600202016000909192909190915060008201518160000160006101000a81548173ffffffffffffffffffffffffffffffffffffffff021916908373ffffffffffffffffffffffffffffffffffffffff160217905550602082015181600101555050505050565b606080606060008054905060405190808252806020026020018201604052801561096d5781602001602082028038833980820191505090505b50905060606000805490506040519080825280602002602001820160405280156109a65781602001602082028038833980820191505090505b50905060008090505b600080549050811015610a91576000818154811015156109cb57fe5b906000526020600020906002020160000160009054906101000a900473ffffffffffffffffffffffffffffffffffffffff168382815181101515610a0b57fe5b9060200190602002019073ffffffffffffffffffffffffffffffffffffffff16908173ffffffffffffffffffffffffffffffffffffffff1681525050600081815481101515610a5657fe5b9060005260206000209060020201600101548282815181101515610a7657fe5b906020019060200201818152505080806001019150506109af565b5081819350935050509091565b60045481565b6000806004546001540142101515610b7b577f33ef1d10db5a3a8df1c73f18eebab8a147f093f4ee3fe65ba48bffc5e79ce07f6040518080602001828103825260488152602001807f61756374696f6e456e646564206265636175736520697420686173207061737381526020017f656420746865206175746f6d617469632074696d65206c696d697420666f722081526020017f61756374696f6e7300000000000000000000000000000000000000000000000081525060600191505060405180910390a1610b72610e48565b91509150610b7c565b5b9091565b60008080549050905090565b6000807f96c95ecc9ed4a84d7733d646e6084202feea634a7faa436f1681a36847e4882360405180806020018281038252601d8152602001807f61756374696f6e456e646564206279206f776e6572207265717565737400000081525060200191505060405180910390a1610bff610e48565b915091509091565b7f22ee4ac3b50c474bfad119e408570469bd10e4c63ba2e5d85f3b97932540d9ad858585858560405180868152602001858152602001806020018060200180602001848103845287818151815260200191508051906020019080838360005b83811015610c81578082015181840152602081019050610c66565b50505050905090810190601f168015610cae5780820380516001836020036101000a031916815260200191505b50848103835286818151815260200191508051906020019080838360005b83811015610ce7578082015181840152602081019050610ccc565b50505050905090810190601f168015610d145780820380516001836020036101000a031916815260200191505b50848103825285818151815260200191508051906020019080838360005b83811015610d4d578082015181840152602081019050610d32565b50505050905090810190601f168015610d7a5780820380516001836020036101000a031916815260200191505b509850505050505050505060405180910390a160006040805190810160405280600073ffffffffffffffffffffffffffffffffffffffff168152602001878152509080600181540180825580915050906001820390600052602060002090600202016000909192909190915060008201518160000160006101000a81548173ffffffffffffffffffffffffffffffffffffffff021916908373ffffffffffffffffffffffffffffffffffffffff16021790555060208201518160010155505050426001819055505050505050565b60008060006001600080549050039050600081815481101515610e6757fe5b906000526020600020906002020160000160009054906101000a900473ffffffffffffffffffffffffffffffffffffffff16600082815481101515610ea857fe5b90600052602060002090600202016001015492509250509091565b60006002544211151515610ed657600080fd5b426002540390509056fea165627a7a72305820a1cb44cc8ccf653fa9aa83024aab9158e9400c3aa636073b55c1314432539da60029",
  "source": "pragma solidity 0.5.0;\n\ncontract Auction\n{\n    // Bids will have a user and an amount\n    struct Bid {\n        address user;\n        uint bidAmount;\n    }\n\n    // This array will store the history of all bids\n    // Due to the logic in this contract, bids will always be in acending price order\n    Bid[] AllBids;\n    \n    // variables to store the details of the start and end of auction\n     uint _auctionStartTime;\n     uint _auctionEndTime;\n     uint _auctionDuration;\n     \n    //varible that contains the maximum time that an auction can last and I will put it as an exemple for 1h \n    uint public _SysTime=60;\n     \n\n    constructor() public {\n    \n    }\n    \n    //event to notify the participants that an auction has started providing the details of video and auction\n    event StartAuctionEvent(uint _initialBid, uint _videoDuration, string _videoResolution, string _videoName, string _videoID);\n    \n    //event to notify the participants that an auction has ended by owner request\n    event EndAuctionEvent_by_owner(string end);\n    \n    //event to notify the participants that an auction has ended by time set by owner \n    event EndAuctionEvent_by_time(string end);\n    \n    //event to notify the participants that an auction has ended by system time specification\n    event EndAuctionEvent_by_system(string end);\n    \n    // modifier the show error when the spefied duration of the auction has come to an end and it will be declenched in the \n    //auctionEnded_byTime function\n    modifier AuctionTimeIsOver\n    {\n        require(now <= _auctionEndTime);\n        _;\n    }\n    \n    // function to start the auction \n    function startAuction(uint _initialBid, uint _videoDuration, string memory _videoResolution,string memory _videoName,string memory _videoID )public\n    {\n        //notify the participants that an auction has started\n        emit StartAuctionEvent(_initialBid, _videoDuration, _videoResolution, _videoName, _videoID);\n        // We will initialize the contract with a bid for initial bid precised by the owner from 0x0\n        AllBids.push(Bid(address(0), _initialBid));\n        // We will initialize the contract with the current timespan of the block \n        _auctionStartTime = now;\n    }\n\n    //if auction owner ends then all participants must be notified and winner shown \n    function auctionEnded_byOwner() public returns (address, uint) \n    {\n            emit EndAuctionEvent_by_owner('auctionEnded by owner request');\n            return getTopBid();\n    }\n    \n    //if auction time ends then it ends and modifier declenched and winner shown\n    function auctionEnded_byTime(uint auctionDuration) public  returns (address, uint) \n    {\n        _auctionDuration = auctionDuration;\n        \n         require(_SysTime <= _auctionDuration,'please enter a duration that is higher then the system time of auction');\n         \n        _auctionEndTime = _auctionStartTime + _auctionDuration;\n        \n        if (now <= _auctionEndTime)\n        {\n            // getRemainingTime();\n            emit EndAuctionEvent_by_time('auctionEnded by time set by owner ');\n            \n            return getTopBid();\n        }\n    }\n    \n    \n   //end auction when maximum time of the auction has been reached \n    function auctionEnded_bySystemTime() public returns (address, uint){\n        if (now >= _auctionStartTime + _SysTime)\n        {\n        emit EndAuctionEvent_by_system('auctionEnded because it has passed the automatic time limit for auctions');\n         return getTopBid();\n        }\n    }\n    \n    //function to calculated the remaining time of the auction\n    function getRemainingTime() public AuctionTimeIsOver view returns (uint)\n    {\n        return _auctionEndTime-now;\n    }\n\n    // Users will submit a bid here as _bidPrice\n    function submitBid(uint _bidPrice) public \n    {\n        // The last index of the array is one less than the length\n        uint lastIndex = AllBids.length - 1;\n        // Ensure this bid is more than the current highest bid (the latest bid)\n        require(_bidPrice > AllBids[lastIndex].bidAmount);\n        // If it is, then push the new bid to the end of the array\n        AllBids.push(Bid(msg.sender, _bidPrice));\n    }\n\n    // Getter function to return the \"top bid\", which is the last index of the array\n    function getTopBid() public view returns (address, uint)\n    {\n        uint lastIndex = AllBids.length - 1;\n        return (AllBids[lastIndex].user, AllBids[lastIndex].bidAmount);\n    }\n\n    // Getter function to return the total number of bids\n    // Allows you to write a loop which goes through all the bids\n    function getNumberOfBids() public view returns (uint) \n    {\n        return AllBids.length;\n    }\n    \n    // return the array that contains all the biding info \n    //However it needs a little bit of work in the front end to transform the data and make it visible in a good way\n    function getAllBids() public view returns (address[] memory,uint[] memory) \n    {\n        address[] memory biderAdress= new address[](AllBids.length);\n        uint[] memory biderAmount= new uint[](AllBids.length);\n        for(uint i = 0; i < AllBids.length; i++)\n        {\n            biderAdress[i] = AllBids[i].user;\n            biderAmount[i] = AllBids[i].bidAmount;\n        }\n    return (biderAdress, biderAmount);\n    }\n    \n    // Getter function to return a single bid from the array by index\n    // Allows you to write a loop which goes through all the bids\n    function getBid(uint index) public view returns (address, uint) \n    {\n        return (AllBids[index].user, AllBids[index].bidAmount);\n    }\n    \n}",
  "sourcePath": "/home/syrine/pfe_project_code/contracts/Auction.sol",
  "compiler": {
    "name": "solc",
    "version": "0.5.0+commit.1d4f565a.Emscripten.clang"
  },
  "schemaVersion": "3.0.1",
  "updatedAt": "2021-06-20T00:48:43.626Z",
  "devdoc": {
    "methods": {}
  },
  "userdoc": {
    "methods": {}
  }
}