{
  "contractName": "OwnershipTransfer",
  "abi": [
    {
      "constant": true,
      "inputs": [
        {
          "name": "",
          "type": "uint256"
        }
      ],
      "name": "owners",
      "outputs": [
        {
          "name": "",
          "type": "address"
        }
      ],
      "payable": false,
      "stateMutability": "view",
      "type": "function",
      "signature": "0x025e7c27"
    },
    {
      "constant": true,
      "inputs": [],
      "name": "executable_owner",
      "outputs": [
        {
          "name": "",
          "type": "address"
        }
      ],
      "payable": false,
      "stateMutability": "view",
      "type": "function",
      "signature": "0xd86ee655"
    },
    {
      "inputs": [
        {
          "name": "extracted_owners_list",
          "type": "address[]"
        }
      ],
      "payable": false,
      "stateMutability": "nonpayable",
      "type": "constructor",
      "signature": "constructor"
    },
    {
      "anonymous": false,
      "inputs": [
        {
          "indexed": true,
          "name": "executableOwner",
          "type": "address"
        },
        {
          "indexed": true,
          "name": "newOwner",
          "type": "address"
        },
        {
          "indexed": false,
          "name": "time",
          "type": "uint256"
        }
      ],
      "name": "Owneradded",
      "type": "event",
      "signature": "0x85985bdb12456d7f35857bd675d7add783bd8f3f604106f26c70d9a43fd35b67"
    },
    {
      "anonymous": false,
      "inputs": [
        {
          "indexed": false,
          "name": "",
          "type": "string"
        }
      ],
      "name": "extracted",
      "type": "event",
      "signature": "0x46505966b21c845e14094996601d679126e3c532ba3a1b07a306dc76eb38399a"
    },
    {
      "constant": true,
      "inputs": [],
      "name": "getAllOwners",
      "outputs": [
        {
          "name": "",
          "type": "address[]"
        }
      ],
      "payable": false,
      "stateMutability": "view",
      "type": "function",
      "signature": "0x16c12746"
    },
    {
      "constant": true,
      "inputs": [
        {
          "name": "newOwner",
          "type": "address"
        }
      ],
      "name": "ownerExists",
      "outputs": [
        {
          "name": "",
          "type": "bool"
        }
      ],
      "payable": false,
      "stateMutability": "view",
      "type": "function",
      "signature": "0x59dbfde8"
    },
    {
      "constant": false,
      "inputs": [
        {
          "name": "newOwner",
          "type": "address"
        }
      ],
      "name": "transferOwnership",
      "outputs": [
        {
          "name": "",
          "type": "address[]"
        }
      ],
      "payable": false,
      "stateMutability": "nonpayable",
      "type": "function",
      "signature": "0xf2fde38b"
    }
  ],
  "bytecode": "0x608060405234801561001057600080fd5b506040516108e73803806108e78339810180604052602081101561003357600080fd5b81019080805164010000000081111561004b57600080fd5b8281019050602081018481111561006157600080fd5b815185602082028301116401000000008211171561007e57600080fd5b5050929190505050336000806101000a81548173ffffffffffffffffffffffffffffffffffffffff021916908373ffffffffffffffffffffffffffffffffffffffff16021790555080600190805190602001906100dc92919061014b565b507f46505966b21c845e14094996601d679126e3c532ba3a1b07a306dc76eb38399a60405180806020018281038252600d8152602001807f6f776e6572732066696c6c65640000000000000000000000000000000000000081525060200191505060405180910390a150610218565b8280548282559060005260206000209081019282156101c4579160200282015b828111156101c35782518260006101000a81548173ffffffffffffffffffffffffffffffffffffffff021916908373ffffffffffffffffffffffffffffffffffffffff1602179055509160200191906001019061016b565b5b5090506101d191906101d5565b5090565b61021591905b8082111561021157600081816101000a81549073ffffffffffffffffffffffffffffffffffffffff0219169055506001016101db565b5090565b90565b6106c0806102276000396000f3fe60806040526004361061006d576000357c0100000000000000000000000000000000000000000000000000000000900463ffffffff168063025e7c271461007257806316c12746146100ed57806359dbfde814610159578063d86ee655146101c2578063f2fde38b14610219575b600080fd5b34801561007e57600080fd5b506100ab6004803603602081101561009557600080fd5b81019080803590602001909291905050506102bf565b604051808273ffffffffffffffffffffffffffffffffffffffff1673ffffffffffffffffffffffffffffffffffffffff16815260200191505060405180910390f35b3480156100f957600080fd5b506101026102fd565b6040518080602001828103825283818151815260200191508051906020019060200280838360005b8381101561014557808201518184015260208101905061012a565b505050509050019250505060405180910390f35b34801561016557600080fd5b506101a86004803603602081101561017c57600080fd5b81019080803573ffffffffffffffffffffffffffffffffffffffff16906020019092919050505061038b565b604051808215151515815260200191505060405180910390f35b3480156101ce57600080fd5b506101d761043e565b604051808273ffffffffffffffffffffffffffffffffffffffff1673ffffffffffffffffffffffffffffffffffffffff16815260200191505060405180910390f35b34801561022557600080fd5b506102686004803603602081101561023c57600080fd5b81019080803573ffffffffffffffffffffffffffffffffffffffff169060200190929190505050610463565b6040518080602001828103825283818151815260200191508051906020019060200280838360005b838110156102ab578082015181840152602081019050610290565b505050509050019250505060405180910390f35b6001818154811015156102ce57fe5b906000526020600020016000915054906101000a900473ffffffffffffffffffffffffffffffffffffffff1681565b6060600180548060200260200160405190810160405280929190818152602001828054801561038157602002820191906000526020600020905b8160009054906101000a900473ffffffffffffffffffffffffffffffffffffffff1673ffffffffffffffffffffffffffffffffffffffff1681526020019060010190808311610337575b5050505050905090565b6000806000905060008090505b600015158215151480156103b0575060018054905081105b15610434578373ffffffffffffffffffffffffffffffffffffffff166001828154811015156103db57fe5b9060005260206000200160009054906101000a900473ffffffffffffffffffffffffffffffffffffffff1673ffffffffffffffffffffffffffffffffffffffff16141561042757600191505b8080600101915050610398565b8192505050919050565b6000809054906101000a900473ffffffffffffffffffffffffffffffffffffffff1681565b60606000809054906101000a900473ffffffffffffffffffffffffffffffffffffffff1673ffffffffffffffffffffffffffffffffffffffff163373ffffffffffffffffffffffffffffffffffffffff161415156104c057600080fd5b60006104cb8361038b565b9050600073ffffffffffffffffffffffffffffffffffffffff168373ffffffffffffffffffffffffffffffffffffffff161415801561050e575060001515811515145b151561051957600080fd5b8273ffffffffffffffffffffffffffffffffffffffff166000809054906101000a900473ffffffffffffffffffffffffffffffffffffffff1673ffffffffffffffffffffffffffffffffffffffff167f85985bdb12456d7f35857bd675d7add783bd8f3f604106f26c70d9a43fd35b67426040518082815260200191505060405180910390a360018390806001815401808255809150509060018203906000526020600020016000909192909190916101000a81548173ffffffffffffffffffffffffffffffffffffffff021916908373ffffffffffffffffffffffffffffffffffffffff16021790555050600180548060200260200160405190810160405280929190818152602001828054801561068757602002820191906000526020600020905b8160009054906101000a900473ffffffffffffffffffffffffffffffffffffffff1673ffffffffffffffffffffffffffffffffffffffff168152602001906001019080831161063d575b505050505091505091905056fea165627a7a72305820113fa0ff7bcfc7a0ef9ea346d0b91fd2a20d3556fdd79b7ee393f83fbe95f1ae0029",
  "source": "pragma solidity 0.5.0;\n\ncontract OwnershipTransfer {\n    \n//variable to store the address of the owner who will add the new owner ( selling owner)\n    address public executable_owner;\n    \n//array to store video's owners that will be given by mahdi from database (input)\n    address[] public owners;\n    \n//event emited to announce the add of a new owner of the video to participants \n    event Owneradded(address indexed executableOwner, address indexed newOwner, uint time);\n    event extracted(string);\n\n    constructor(address[] memory extracted_owners_list) public \n    {\n//store the address of the executer of contract\n        executable_owner = msg.sender;\n         owners = extracted_owners_list;\n        emit extracted('owners filled');\n    }\n    \n// error in length and value mismatch cause can't do .length for memory array \n// when filling the array it must be filled with [\"adress1\",\"adress2\"]\n  /*function fill_owners(address[] memory extracted_owners_list) public returns(address[] memory)\n    {\n//extract the array of owners received from mahdi into a local storage variable\n//to manipulate it and berform the necessary controls\n\n        owners = extracted_owners_list;\n        return(owners);\n        emit extracted('owners filled');\n    }*/\n    \n//function to print the owner array content\n    function getAllOwners() public view returns (address[] memory){\n        return(owners);\n    }\n//control that the person who will transfert the ownership is in fact the same as the one who executed the contract\n    modifier isOwner() \n    {\n        require(msg.sender == executable_owner);\n        _;\n    }\n    \n//function to control if the owner address to be added is in fact a new owner \n    function ownerExists(address newOwner) public view returns( bool)\n    {\n        bool ownerAlreadyExists = false;\n        uint i = 0;\n        while ((ownerAlreadyExists == false) && (i < owners.length))\n        {\n            if (owners[i] == newOwner)\n            {\n                ownerAlreadyExists = true;\n            }\n            i ++;\n        }\n        return(ownerAlreadyExists);\n    }\n    \n//function to add the new owner to the owners list of that video ( transfert ownership)\n//add modofier control\n    function transferOwnership(address newOwner) public isOwner \n    returns(address[] memory)\n    {\n        bool checkOwnerExstince = ownerExists(newOwner);\n//control on the owner to be added: he is identifiable (physicall exists) & not already an owner\n        require((newOwner != address(0)) && (checkOwnerExstince == false));\n//emit event \n       emit Owneradded(executable_owner, newOwner, now);\n//add new owner in the owners array\n        owners.push(newOwner);\n//return updated array to mahdi to be updated in the database\n       return(owners);\n    }\n\n}",
  "sourcePath": "/home/syrine/pfe_project_code/contracts/OwnershipTransfer.sol",
  "compiler": {
    "name": "solc",
    "version": "0.5.0+commit.1d4f565a.Emscripten.clang"
  },
  "schemaVersion": "3.0.1",
  "updatedAt": "2021-06-20T00:48:43.633Z",
  "devdoc": {
    "methods": {}
  },
  "userdoc": {
    "methods": {}
  }
}