{
  "contractName": "OwnershipTransfert",
  "abi": [
    {
      "constant": true,
      "inputs": [],
      "name": "executable_owner",
      "outputs": [
        {
          "name": "",
          "type": "address"
        }
      ],
      "payable": false,
      "stateMutability": "view",
      "type": "function"
    },
    {
      "inputs": [],
      "payable": false,
      "stateMutability": "nonpayable",
      "type": "constructor"
    },
    {
      "anonymous": false,
      "inputs": [
        {
          "indexed": true,
          "name": "executableOwner",
          "type": "address"
        },
        {
          "indexed": true,
          "name": "newOwner",
          "type": "address"
        },
        {
          "indexed": false,
          "name": "time",
          "type": "uint256"
        }
      ],
      "name": "Owneradded",
      "type": "event"
    },
    {
      "constant": false,
      "inputs": [
        {
          "name": "extracted_owners_list",
          "type": "address[]"
        }
      ],
      "name": "fill_owners",
      "outputs": [
        {
          "name": "",
          "type": "address[]"
        }
      ],
      "payable": false,
      "stateMutability": "nonpayable",
      "type": "function"
    },
    {
      "constant": true,
      "inputs": [],
      "name": "getAllOwners",
      "outputs": [
        {
          "name": "",
          "type": "address[]"
        }
      ],
      "payable": false,
      "stateMutability": "view",
      "type": "function"
    },
    {
      "constant": true,
      "inputs": [
        {
          "name": "newOwner",
          "type": "address"
        }
      ],
      "name": "ownerExists",
      "outputs": [
        {
          "name": "",
          "type": "bool"
        }
      ],
      "payable": false,
      "stateMutability": "view",
      "type": "function"
    },
    {
      "constant": false,
      "inputs": [
        {
          "name": "newOwner",
          "type": "address"
        }
      ],
      "name": "transferOwnership",
      "outputs": [
        {
          "name": "",
          "type": "address[]"
        }
      ],
      "payable": false,
      "stateMutability": "nonpayable",
      "type": "function"
    }
  ],
  "bytecode": "0x608060405234801561001057600080fd5b50336000806101000a81548173ffffffffffffffffffffffffffffffffffffffff021916908373ffffffffffffffffffffffffffffffffffffffff1602179055506108ed806100606000396000f3fe60806040526004361061006d576000357c0100000000000000000000000000000000000000000000000000000000900463ffffffff16806316c12746146100725780632cfc8805146100de57806359dbfde8146101f8578063d86ee65514610261578063f2fde38b146102b8575b600080fd5b34801561007e57600080fd5b5061008761035e565b6040518080602001828103825283818151815260200191508051906020019060200280838360005b838110156100ca5780820151818401526020810190506100af565b505050509050019250505060405180910390f35b3480156100ea57600080fd5b506101a16004803603602081101561010157600080fd5b810190808035906020019064010000000081111561011e57600080fd5b82018360208201111561013057600080fd5b8035906020019184602083028401116401000000008311171561015257600080fd5b919080806020026020016040519081016040528093929190818152602001838360200280828437600081840152601f19601f820116905080830192505050505050509192919290505050610444565b6040518080602001828103825283818151815260200191508051906020019060200280838360005b838110156101e45780820151818401526020810190506101c9565b505050509050019250505060405180910390f35b34801561020457600080fd5b506102476004803603602081101561021b57600080fd5b81019080803573ffffffffffffffffffffffffffffffffffffffff1690602001909291905050506104eb565b604051808215151515815260200191505060405180910390f35b34801561026d57600080fd5b5061027661059e565b604051808273ffffffffffffffffffffffffffffffffffffffff1673ffffffffffffffffffffffffffffffffffffffff16815260200191505060405180910390f35b3480156102c457600080fd5b50610307600480360360208110156102db57600080fd5b81019080803573ffffffffffffffffffffffffffffffffffffffff1690602001909291905050506105c3565b6040518080602001828103825283818151815260200191508051906020019060200280838360005b8381101561034a57808201518184015260208101905061032f565b505050509050019250505060405180910390f35b6060806001805490506040519080825280602002602001820160405280156103955781602001602082028038833980820191505090505b50905060008090505b60018054905081101561043c576001818154811015156103ba57fe5b9060005260206000200160009054906101000a900473ffffffffffffffffffffffffffffffffffffffff1682828151811015156103f357fe5b9060200190602002019073ffffffffffffffffffffffffffffffffffffffff16908173ffffffffffffffffffffffffffffffffffffffff1681525050808060010191505061039e565b508091505090565b6060816001908051906020019061045c9291906107f4565b5060018054806020026020016040519081016040528092919081815260200182805480156104df57602002820191906000526020600020905b8160009054906101000a900473ffffffffffffffffffffffffffffffffffffffff1673ffffffffffffffffffffffffffffffffffffffff1681526020019060010190808311610495575b50505050509050919050565b6000806000905060008090505b60001515821515148015610510575060018054905081105b15610594578373ffffffffffffffffffffffffffffffffffffffff1660018281548110151561053b57fe5b9060005260206000200160009054906101000a900473ffffffffffffffffffffffffffffffffffffffff1673ffffffffffffffffffffffffffffffffffffffff16141561058757600191505b80806001019150506104f8565b8192505050919050565b6000809054906101000a900473ffffffffffffffffffffffffffffffffffffffff1681565b60606000809054906101000a900473ffffffffffffffffffffffffffffffffffffffff1673ffffffffffffffffffffffffffffffffffffffff163373ffffffffffffffffffffffffffffffffffffffff1614151561062057600080fd5b600061062b836104eb565b9050600073ffffffffffffffffffffffffffffffffffffffff168373ffffffffffffffffffffffffffffffffffffffff161415801561066e575060001515811515145b151561067957600080fd5b8273ffffffffffffffffffffffffffffffffffffffff166000809054906101000a900473ffffffffffffffffffffffffffffffffffffffff1673ffffffffffffffffffffffffffffffffffffffff167f85985bdb12456d7f35857bd675d7add783bd8f3f604106f26c70d9a43fd35b67426040518082815260200191505060405180910390a360018390806001815401808255809150509060018203906000526020600020016000909192909190916101000a81548173ffffffffffffffffffffffffffffffffffffffff021916908373ffffffffffffffffffffffffffffffffffffffff1602179055505060018054806020026020016040519081016040528092919081815260200182805480156107e757602002820191906000526020600020905b8160009054906101000a900473ffffffffffffffffffffffffffffffffffffffff1673ffffffffffffffffffffffffffffffffffffffff168152602001906001019080831161079d575b5050505050915050919050565b82805482825590600052602060002090810192821561086d579160200282015b8281111561086c5782518260006101000a81548173ffffffffffffffffffffffffffffffffffffffff021916908373ffffffffffffffffffffffffffffffffffffffff16021790555091602001919060010190610814565b5b50905061087a919061087e565b5090565b6108be91905b808211156108ba57600081816101000a81549073ffffffffffffffffffffffffffffffffffffffff021916905550600101610884565b5090565b9056fea165627a7a72305820faf92950e34f46918391f2dd09abc9c6c3459835717251e121726c2003aa1ce90029",
  "source": "pragma solidity 0.5.0;\n\ncontract OwnershipTransfert {\n    \n//variable to store the address of the owner who will add the new owner ( selling owner)\n    address public executable_owner;\n    \n//array to store video's owners that will be given by mahdi from database (input)\n    address[] owners;\n    \n//event emited to announce the add of a new owner of the video to participants \n    event Owneradded(address indexed executableOwner, address indexed newOwner, uint time);\n \n \n    constructor() public \n    {\n//store the address of the executer of contract\n        executable_owner = msg.sender;\n    }\n    \n// error in length and value mismatch cause can't do .length for memory array \n// when filling the array it must be filled with [\"adress1\",\"adress2\"]\n   function fill_owners(address[] memory extracted_owners_list) public returns(address[] memory)\n    {\n//extract the array of owners received from mahdi into a local storage variable\n//to manipulate it and berform the necessary controls\n\n        owners = extracted_owners_list;\n        return(owners);\n    }\n    \n//function to print the owner array content\n    function getAllOwners() public view returns (address[] memory) \n    {\n        address[] memory ownerAdress= new address[](owners.length);\n       \n        for(uint i = 0; i < owners.length; i++)\n        {\n            ownerAdress[i] = owners[i];\n        }\n    return (ownerAdress);\n    }\n    \n//control that the person who will transfert the ownership is in fact the same as the one who executed the contract\n    modifier isOwner() \n    {\n        require(msg.sender == executable_owner);\n        _;\n    }\n    \n//function to control if the owner address to be added is in fact a new owner \n    function ownerExists(address newOwner) public view returns( bool)\n    {\n        bool ownerAlreadyExists = false;\n        uint i = 0;\n        while ((ownerAlreadyExists == false) && (i < owners.length))\n        {\n            if (owners[i] == newOwner)\n            {\n                ownerAlreadyExists = true;\n            }\n            i ++;\n        }\n        return(ownerAlreadyExists);\n    }\n    \n//function to add the new owner to the owners list of that video ( transfert ownership)\n//add modofier control\n    function transferOwnership(address newOwner) public isOwner returns(address[] memory)\n    {\n        bool checkOwnerExstince = ownerExists(newOwner);\n//control on the owner to be added: he is identifiable (physicall exists) & not already an owner\n        require((newOwner != address(0)) && (checkOwnerExstince == false));\n//emit event \n       emit Owneradded(executable_owner, newOwner, now);\n//add new owner in the owners array\n        owners.push(newOwner);\n//return updated array to mahdi to be updated in the database\n        return(owners);\n    }\n\n}",
  "sourcePath": "/home/syrine/pfe_project_code/contracts/OwnershipTransfer.sol",
  "compiler": {
    "name": "solc",
    "version": "0.5.0+commit.1d4f565a.Emscripten.clang"
  },
  "schemaVersion": "3.0.1",
  "updatedAt": "2021-06-12T18:48:24.615Z",
  "devdoc": {
    "methods": {}
  },
  "userdoc": {
    "methods": {}
  }
}