{
  "contractName": "Payement",
  "abi": [
    {
      "inputs": [],
      "payable": false,
      "stateMutability": "nonpayable",
      "type": "constructor",
      "signature": "constructor"
    },
    {
      "anonymous": false,
      "inputs": [
        {
          "indexed": false,
          "name": "transferedFrom",
          "type": "address"
        },
        {
          "indexed": false,
          "name": "transferedTo",
          "type": "address"
        },
        {
          "indexed": false,
          "name": "amount",
          "type": "uint256"
        },
        {
          "indexed": false,
          "name": "time",
          "type": "uint256"
        }
      ],
      "name": "ether_succesufully_transfered",
      "type": "event",
      "signature": "0x60693bb3a2c8abb14d877e06796d4120d29c8ac92f7005bc1525b009325f32f8"
    },
    {
      "constant": false,
      "inputs": [
        {
          "name": "receiver_owner",
          "type": "address"
        }
      ],
      "name": "transfertether",
      "outputs": [],
      "payable": true,
      "stateMutability": "payable",
      "type": "function",
      "signature": "0x57109347"
    }
  ],
  "bytecode": "0x608060405234801561001057600080fd5b50336000806101000a81548173ffffffffffffffffffffffffffffffffffffffff021916908373ffffffffffffffffffffffffffffffffffffffff160217905550610223806100606000396000f3fe608060405260043610610041576000357c0100000000000000000000000000000000000000000000000000000000900463ffffffff1680635710934714610046575b600080fd5b6100886004803603602081101561005c57600080fd5b81019080803573ffffffffffffffffffffffffffffffffffffffff16906020019092919050505061008a565b005b6000809054906101000a900473ffffffffffffffffffffffffffffffffffffffff1673ffffffffffffffffffffffffffffffffffffffff163373ffffffffffffffffffffffffffffffffffffffff161415156100e557600080fd5b8073ffffffffffffffffffffffffffffffffffffffff166108fc349081150290604051600060405180830381858888f1935050505015801561012b573d6000803e3d6000fd5b507f60693bb3a2c8abb14d877e06796d4120d29c8ac92f7005bc1525b009325f32f86000809054906101000a900473ffffffffffffffffffffffffffffffffffffffff16823442604051808573ffffffffffffffffffffffffffffffffffffffff1673ffffffffffffffffffffffffffffffffffffffff1681526020018473ffffffffffffffffffffffffffffffffffffffff1673ffffffffffffffffffffffffffffffffffffffff16815260200183815260200182815260200194505050505060405180910390a15056fea165627a7a72305820c231822623958381d17d89286a9df56da04ada0ef2db41e73fca25dd355466090029",
  "source": "pragma solidity 0.5.0;\n\n\ncontract Payement{\n    \n    address payable sender;\n   // address payable receiver_owner;\n    uint senderbalance;\n    uint amount;\n    \n   // event balance(uint amount);\n //event to announce the success of transfert of ethers \n    event ether_succesufully_transfered(address transferedFrom,address transferedTo,uint amount, uint time);\n    \n    constructor()public \n    {\n        sender = msg.sender;\n    }\n    \n//Modifier to verify the identity of the person sending ethers ( same person as the executer)\n    modifier isSender() \n    {\n        require(msg.sender == sender);\n        _;\n    }\n\n//function to transfert ethers from one account ( sender/participant) to another(owner)\n    function transfertether(address payable receiver_owner) isSender() public payable\n    {\n        \n        receiver_owner.transfer(msg.value);\n        emit ether_succesufully_transfered(sender,receiver_owner, msg.value, now);\n    }\n    \n}",
  "sourcePath": "/home/syrine/pfe_project_code/contracts/Tokens_transfer.sol",
  "compiler": {
    "name": "solc",
    "version": "0.5.0+commit.1d4f565a.Emscripten.clang"
  },
  "schemaVersion": "3.0.1",
  "updatedAt": "2021-06-12T18:48:36.087Z",
  "devdoc": {
    "methods": {}
  },
  "userdoc": {
    "methods": {}
  }
}