{
  "contractName": "Social_Interaction",
  "abi": [
    {
      "inputs": [],
      "payable": false,
      "stateMutability": "nonpayable",
      "type": "constructor",
      "signature": "constructor"
    },
    {
      "anonymous": false,
      "inputs": [
        {
          "indexed": false,
          "name": "investement_price",
          "type": "uint256"
        }
      ],
      "name": "receiptIsGenerated",
      "type": "event",
      "signature": "0xf28da4715eb0e93a03f4c67155714231526782cabda290b958008fb55eebc481"
    },
    {
      "constant": false,
      "inputs": [
        {
          "name": "_vuePrice",
          "type": "uint256"
        }
      ],
      "name": "Vue",
      "outputs": [
        {
          "name": "",
          "type": "uint256"
        },
        {
          "name": "",
          "type": "uint256"
        }
      ],
      "payable": false,
      "stateMutability": "nonpayable",
      "type": "function",
      "signature": "0x0df03bac"
    },
    {
      "constant": false,
      "inputs": [
        {
          "name": "_likePrice",
          "type": "uint256"
        }
      ],
      "name": "Like",
      "outputs": [
        {
          "name": "",
          "type": "uint256"
        },
        {
          "name": "",
          "type": "uint256"
        }
      ],
      "payable": false,
      "stateMutability": "nonpayable",
      "type": "function",
      "signature": "0x447c5d87"
    },
    {
      "constant": false,
      "inputs": [
        {
          "name": "_sharePrice",
          "type": "uint256"
        }
      ],
      "name": "share",
      "outputs": [
        {
          "name": "",
          "type": "uint256"
        },
        {
          "name": "",
          "type": "uint256"
        }
      ],
      "payable": false,
      "stateMutability": "nonpayable",
      "type": "function",
      "signature": "0xc3d9c4b4"
    },
    {
      "constant": true,
      "inputs": [],
      "name": "getPrice",
      "outputs": [
        {
          "name": "",
          "type": "uint256"
        }
      ],
      "payable": false,
      "stateMutability": "view",
      "type": "function",
      "signature": "0x98d5fdca"
    },
    {
      "constant": true,
      "inputs": [],
      "name": "getVcount",
      "outputs": [
        {
          "name": "",
          "type": "uint256"
        }
      ],
      "payable": false,
      "stateMutability": "view",
      "type": "function",
      "signature": "0xc1b34995"
    },
    {
      "constant": true,
      "inputs": [],
      "name": "getLcount",
      "outputs": [
        {
          "name": "",
          "type": "uint256"
        }
      ],
      "payable": false,
      "stateMutability": "view",
      "type": "function",
      "signature": "0x10224a1a"
    },
    {
      "constant": true,
      "inputs": [],
      "name": "getScount",
      "outputs": [
        {
          "name": "",
          "type": "uint256"
        }
      ],
      "payable": false,
      "stateMutability": "view",
      "type": "function",
      "signature": "0xecc40541"
    }
  ],
  "bytecode": "0x6080604052600060015560006002556000600355600060045534801561002457600080fd5b50336000806101000a81548173ffffffffffffffffffffffffffffffffffffffff021916908373ffffffffffffffffffffffffffffffffffffffff160217905550610323806100746000396000f3fe608060405260043610610083576000357c0100000000000000000000000000000000000000000000000000000000900463ffffffff1680630df03bac1461008857806310224a1a146100de578063447c5d871461010957806398d5fdca1461015f578063c1b349951461018a578063c3d9c4b4146101b5578063ecc405411461020b575b600080fd5b34801561009457600080fd5b506100c1600480360360208110156100ab57600080fd5b8101908080359060200190929190505050610236565b604051808381526020018281526020019250505060405180910390f35b3480156100ea57600080fd5b506100f3610269565b6040518082815260200191505060405180910390f35b34801561011557600080fd5b506101426004803603602081101561012c57600080fd5b8101908080359060200190929190505050610273565b604051808381526020018281526020019250505060405180910390f35b34801561016b57600080fd5b506101746102a6565b6040518082815260200191505060405180910390f35b34801561019657600080fd5b5061019f6102b0565b6040518082815260200191505060405180910390f35b3480156101c157600080fd5b506101ee600480360360208110156101d857600080fd5b81019080803590602001909291905050506102ba565b604051808381526020018281526020019250505060405180910390f35b34801561021757600080fd5b506102206102ed565b6040518082815260200191505060405180910390f35b60008082600160008282540192505081905550600160026000828254019250508190555060015460025491509150915091565b6000600354905090565b60008082600160008282540192505081905550600160036000828254019250508190555060015460035491509150915091565b6000600154905090565b6000600254905090565b60008082600160008282540192505081905550600160046000828254019250508190555060015460045491509150915091565b600060045490509056fea165627a7a72305820957c4b519602a73f8550f8d4f8dfe77140cb3e8102191af6b569cde4cc0731bb0029",
  "source": "pragma solidity 0.5.0;\n//need to create a smart contract for each vid on blockchain which will contain the investement details of it\n//try with the fazet mahdi 5aterhom barcha vid \ncontract Social_Interaction{\n    \naddress payable executer;\n\nuint investement_price = 0 ;\nuint Vcount = 0 ;\nuint Lcount = 0 ;\nuint Scount = 0 ;\n\nevent receiptIsGenerated(uint investement_price);\n\n//take the address of the user that is going to interact socially to be able to transfert money from it later on\n    constructor() public{\n    executer = msg.sender;\n    }\n//each vid will have balance in which it will record all the nvestement and money received for its account wich \n//will make it possible to do the vid economic lifecycle\n    function Vue (uint _vuePrice) public returns(uint,uint)\n    {\n    \n        investement_price += _vuePrice;\n        Vcount += 1 ;\n        return(investement_price ,Vcount);\n    }\n\n    function Like(uint _likePrice ) public returns(uint,uint)\n    {\n    \n    investement_price += _likePrice;\n     Lcount += 1 ;\n    return(investement_price ,Lcount);\n    \n    }\n    function share( uint _sharePrice) public returns(uint,uint)\n    {\n    \n    investement_price += _sharePrice;\n     Scount += 1 ;\n    return(investement_price ,Scount);\n    \n    }\n    function getPrice() public view returns(uint){\n        return(investement_price);\n    }\n    function getVcount()  public view returns(uint){\n        return(Vcount);\n    }\n    function getLcount()  public view returns(uint){\n        return(Lcount);\n    }\n    function getScount()  public view returns(uint){\n        return(Scount);\n    }\n\n}",
  "sourcePath": "/home/syrine/pfe_project_code/contracts/Social_interaction.sol",
  "compiler": {
    "name": "solc",
    "version": "0.5.0+commit.1d4f565a.Emscripten.clang"
  },
  "schemaVersion": "3.0.1",
  "updatedAt": "2021-06-12T18:48:36.085Z",
  "devdoc": {
    "methods": {}
  },
  "userdoc": {
    "methods": {}
  }
}