{
  "contractName": "TokensTransfer",
  "abi": [
    {
      "constant": true,
      "inputs": [],
      "name": "sender",
      "outputs": [
        {
          "name": "",
          "type": "address"
        }
      ],
      "payable": false,
      "stateMutability": "view",
      "type": "function",
      "signature": "0x67e404ce"
    },
    {
      "inputs": [],
      "payable": false,
      "stateMutability": "nonpayable",
      "type": "constructor",
      "signature": "constructor"
    },
    {
      "anonymous": false,
      "inputs": [
        {
          "indexed": false,
          "name": "transferedFrom",
          "type": "address"
        },
        {
          "indexed": false,
          "name": "transferedTo",
          "type": "address"
        },
        {
          "indexed": false,
          "name": "amount",
          "type": "uint256"
        },
        {
          "indexed": false,
          "name": "time",
          "type": "uint256"
        }
      ],
      "name": "ether_succesufully_transfered",
      "type": "event",
      "signature": "0x60693bb3a2c8abb14d877e06796d4120d29c8ac92f7005bc1525b009325f32f8"
    },
    {
      "constant": true,
      "inputs": [],
      "name": "showExecuter",
      "outputs": [
        {
          "name": "",
          "type": "address"
        }
      ],
      "payable": false,
      "stateMutability": "view",
      "type": "function",
      "signature": "0x960f6417"
    },
    {
      "constant": false,
      "inputs": [],
      "name": "setBalance",
      "outputs": [
        {
          "name": "",
          "type": "uint256"
        }
      ],
      "payable": false,
      "stateMutability": "nonpayable",
      "type": "function",
      "signature": "0x1a61746e"
    },
    {
      "constant": true,
      "inputs": [],
      "name": "getBalance",
      "outputs": [
        {
          "name": "",
          "type": "uint256"
        }
      ],
      "payable": false,
      "stateMutability": "view",
      "type": "function",
      "signature": "0x12065fe0"
    },
    {
      "constant": false,
      "inputs": [
        {
          "name": "receiver_owner",
          "type": "address"
        }
      ],
      "name": "transfertether",
      "outputs": [],
      "payable": true,
      "stateMutability": "payable",
      "type": "function",
      "signature": "0x57109347"
    }
  ],
  "bytecode": "0x608060405234801561001057600080fd5b50336000806101000a81548173ffffffffffffffffffffffffffffffffffffffff021916908373ffffffffffffffffffffffffffffffffffffffff1602179055506103d3806100606000396000f3fe60806040526004361061006d576000357c0100000000000000000000000000000000000000000000000000000000900463ffffffff16806312065fe0146100725780631a61746e1461009d57806357109347146100c857806367e404ce1461010c578063960f641714610163575b600080fd5b34801561007e57600080fd5b506100876101ba565b6040518082815260200191505060405180910390f35b3480156100a957600080fd5b506100b26101c4565b6040518082815260200191505060405180910390f35b61010a600480360360208110156100de57600080fd5b81019080803573ffffffffffffffffffffffffffffffffffffffff1690602001909291905050506101ec565b005b34801561011857600080fd5b50610121610359565b604051808273ffffffffffffffffffffffffffffffffffffffff1673ffffffffffffffffffffffffffffffffffffffff16815260200191505060405180910390f35b34801561016f57600080fd5b5061017861037e565b604051808273ffffffffffffffffffffffffffffffffffffffff1673ffffffffffffffffffffffffffffffffffffffff16815260200191505060405180910390f35b6000600154905090565b60003373ffffffffffffffffffffffffffffffffffffffff1631600181905550600154905090565b6000809054906101000a900473ffffffffffffffffffffffffffffffffffffffff1673ffffffffffffffffffffffffffffffffffffffff163373ffffffffffffffffffffffffffffffffffffffff1614151561024757600080fd5b8073ffffffffffffffffffffffffffffffffffffffff166108fc349081150290604051600060405180830381858888f1935050505015801561028d573d6000803e3d6000fd5b507f60693bb3a2c8abb14d877e06796d4120d29c8ac92f7005bc1525b009325f32f86000809054906101000a900473ffffffffffffffffffffffffffffffffffffffff16823442604051808573ffffffffffffffffffffffffffffffffffffffff1673ffffffffffffffffffffffffffffffffffffffff1681526020018473ffffffffffffffffffffffffffffffffffffffff1673ffffffffffffffffffffffffffffffffffffffff16815260200183815260200182815260200194505050505060405180910390a150565b6000809054906101000a900473ffffffffffffffffffffffffffffffffffffffff1681565b60008060009054906101000a900473ffffffffffffffffffffffffffffffffffffffff1690509056fea165627a7a72305820379bcddbbb605ed312f9e3ff5d3e8f34b5a1608907bc62cd1e8b5202434a7dc30029",
  "source": "pragma solidity 0.5.0;\n\n\ncontract TokensTransfer{\n    \n    address payable public sender;\n   // address payable receiver_owner;\n    uint senderbalance;\n    \n    \n    //event balance(uint amount);\n //event to announce the success of transfert of ethers \n    event ether_succesufully_transfered(address transferedFrom,address transferedTo,uint amount, uint time);\n    \n    constructor()public \n    {\n        sender = msg.sender;\n    }\n    function showExecuter() public  view returns( address payable){\n        return(sender);\n    }\n    \n//Modifier to verify the identity of the person sending ethers ( same person as the executer)\n    modifier isSender() \n    {\n        require(msg.sender == sender);\n        _;\n    }\n    function setBalance() public returns (uint) {\n        senderbalance = msg.sender.balance;\n        return senderbalance;\n\n      // emit balance(senderbalance);truffle compile\n\n    }\n    //get sender/ executer account balance \n    function getBalance() view public returns (uint) {\n        return senderbalance;\n\n      // emit balance(senderbalance);truffle compile\n\n    }\n//Modifier to verify that the sender has enough balance to send \n//error in gas estimation that I don't know why \n    /*modifier enoughBalance()\n    {\n         require(senderbalance > msg.value);\n         _;\n        \n    }*/\n// controle the not enough balance by default \n//function to transfert ethers from one account ( sender/participant) to another(owner)\n    function transfertether(address payable receiver_owner) isSender()  public payable\n    {\n        \n        receiver_owner.transfer(msg.value);\n        emit ether_succesufully_transfered(sender,receiver_owner, msg.value, now);\n    }\n    \n}",
  "sourcePath": "/home/syrine/pfe_project_code/contracts/TokensTransfer.sol",
  "compiler": {
    "name": "solc",
    "version": "0.5.0+commit.1d4f565a.Emscripten.clang"
  },
  "schemaVersion": "3.0.1",
  "updatedAt": "2021-06-20T00:48:43.622Z",
  "devdoc": {
    "methods": {}
  },
  "userdoc": {
    "methods": {}
  }
}