{
  "contractName": "vid_sale_receipt",
  "abi": [
    {
      "anonymous": false,
      "inputs": [
        {
          "indexed": false,
          "name": "_vidPrice",
          "type": "uint256"
        }
      ],
      "name": "receipt_generated",
      "type": "event",
      "signature": "0x47736a79870e6af84854339f2169e78f9308f69dab532c74911291357fb025f6"
    },
    {
      "constant": false,
      "inputs": [
        {
          "name": "_vidResolution",
          "type": "string"
        },
        {
          "name": "_vidpopularity",
          "type": "string"
        },
        {
          "name": "_vidSalePrice",
          "type": "uint256"
        }
      ],
      "name": "receiptGeneration",
      "outputs": [
        {
          "name": "",
          "type": "uint256"
        }
      ],
      "payable": false,
      "stateMutability": "nonpayable",
      "type": "function",
      "signature": "0x14ad4abe"
    },
    {
      "constant": true,
      "inputs": [],
      "name": "getPrice",
      "outputs": [
        {
          "name": "",
          "type": "uint256"
        }
      ],
      "payable": false,
      "stateMutability": "view",
      "type": "function",
      "signature": "0x98d5fdca"
    }
  ],
  "bytecode": "0x608060405234801561001057600080fd5b50611552806100206000396000f3fe60806040526004361061004c576000357c0100000000000000000000000000000000000000000000000000000000900463ffffffff16806314ad4abe1461005157806398d5fdca146101ce575b600080fd5b34801561005d57600080fd5b506101b86004803603606081101561007457600080fd5b810190808035906020019064010000000081111561009157600080fd5b8201836020820111156100a357600080fd5b803590602001918460018302840111640100000000831117156100c557600080fd5b91908080601f016020809104026020016040519081016040528093929190818152602001838380828437600081840152601f19601f8201169050808301925050505050505091929192908035906020019064010000000081111561012857600080fd5b82018360208201111561013a57600080fd5b8035906020019184600183028401116401000000008311171561015c57600080fd5b91908080601f016020809104026020016040519081016040528093929190818152602001838380828437600081840152601f19601f820116905080830192505050505050509192919290803590602001909291905050506101f9565b6040518082815260200191505060405180910390f35b3480156101da57600080fd5b506101e361151d565b6040518082815260200191505060405180910390f35b60008160008190555060405160200180807f5344000000000000000000000000000000000000000000000000000000000000815250600201905060405160208183030381529060405280519060200120846040516020018082805190602001908083835b602083101515610282578051825260208201915060208101905060208303925061025d565b6001836020036101000a03801982511681845116808217855250505050505090500191505060405160208183030381529060405280519060200120148015610382575060405160200180807f6e6f7420706f70756c6172000000000000000000000000000000000000000000815250600b01905060405160208183030381529060405280519060200120836040516020018082805190602001908083835b6020831015156103455780518252602082019150602081019050602083039250610320565b6001836020036101000a03801982511681845116808217855250505050505090500191505060405160208183030381529060405280519060200120145b1561039857600054600102600081905550611511565b60405160200180807f5344000000000000000000000000000000000000000000000000000000000000815250600201905060405160208183030381529060405280519060200120846040516020018082805190602001908083835b60208310151561041857805182526020820191506020810190506020830392506103f3565b6001836020036101000a03801982511681845116808217855250505050505090500191505060405160208183030381529060405280519060200120148015610518575060405160200180807f706f70756c617200000000000000000000000000000000000000000000000000815250600701905060405160208183030381529060405280519060200120836040516020018082805190602001908083835b6020831015156104db57805182526020820191506020810190506020830392506104b6565b6001836020036101000a03801982511681845116808217855250505050505090500191505060405160208183030381529060405280519060200120145b1561052e57600054600202600081905550611510565b60405160200180807f5344000000000000000000000000000000000000000000000000000000000000815250600201905060405160208183030381529060405280519060200120846040516020018082805190602001908083835b6020831015156105ae5780518252602082019150602081019050602083039250610589565b6001836020036101000a038019825116818451168082178552505050505050905001915050604051602081830303815290604052805190602001201480156106ae575060405160200180807f7665727920706f70756c61720000000000000000000000000000000000000000815250600c01905060405160208183030381529060405280519060200120836040516020018082805190602001908083835b602083101515610671578051825260208201915060208101905060208303925061064c565b6001836020036101000a03801982511681845116808217855250505050505090500191505060405160208183030381529060405280519060200120145b156106c45760005460030260008190555061150f565b60405160200180807f4844000000000000000000000000000000000000000000000000000000000000815250600201905060405160208183030381529060405280519060200120846040516020018082805190602001908083835b602083101515610744578051825260208201915060208101905060208303925061071f565b6001836020036101000a03801982511681845116808217855250505050505090500191505060405160208183030381529060405280519060200120148015610844575060405160200180807f6e6f7420706f70756c6172000000000000000000000000000000000000000000815250600b01905060405160208183030381529060405280519060200120836040516020018082805190602001908083835b60208310151561080757805182526020820191506020810190506020830392506107e2565b6001836020036101000a03801982511681845116808217855250505050505090500191505060405160208183030381529060405280519060200120145b1561085a5760005460020260008190555061150e565b60405160200180807f4844000000000000000000000000000000000000000000000000000000000000815250600201905060405160208183030381529060405280519060200120846040516020018082805190602001908083835b6020831015156108da57805182526020820191506020810190506020830392506108b5565b6001836020036101000a038019825116818451168082178552505050505050905001915050604051602081830303815290604052805190602001201480156109da575060405160200180807f706f70756c617200000000000000000000000000000000000000000000000000815250600701905060405160208183030381529060405280519060200120836040516020018082805190602001908083835b60208310151561099d5780518252602082019150602081019050602083039250610978565b6001836020036101000a03801982511681845116808217855250505050505090500191505060405160208183030381529060405280519060200120145b156109f05760005460030260008190555061150d565b60405160200180807f4844000000000000000000000000000000000000000000000000000000000000815250600201905060405160208183030381529060405280519060200120846040516020018082805190602001908083835b602083101515610a705780518252602082019150602081019050602083039250610a4b565b6001836020036101000a03801982511681845116808217855250505050505090500191505060405160208183030381529060405280519060200120148015610b70575060405160200180807f7665727920706f70756c61720000000000000000000000000000000000000000815250600c01905060405160208183030381529060405280519060200120836040516020018082805190602001908083835b602083101515610b335780518252602082019150602081019050602083039250610b0e565b6001836020036101000a03801982511681845116808217855250505050505090500191505060405160208183030381529060405280519060200120145b15610b865760005460040260008190555061150c565b60405160200180807f46756c6c20484400000000000000000000000000000000000000000000000000815250600701905060405160208183030381529060405280519060200120846040516020018082805190602001908083835b602083101515610c065780518252602082019150602081019050602083039250610be1565b6001836020036101000a03801982511681845116808217855250505050505090500191505060405160208183030381529060405280519060200120148015610d06575060405160200180807f6e6f7420706f70756c6172000000000000000000000000000000000000000000815250600b01905060405160208183030381529060405280519060200120836040516020018082805190602001908083835b602083101515610cc95780518252602082019150602081019050602083039250610ca4565b6001836020036101000a03801982511681845116808217855250505050505090500191505060405160208183030381529060405280519060200120145b15610d1c5760005460030260008190555061150b565b60405160200180807f46756c6c20484400000000000000000000000000000000000000000000000000815250600701905060405160208183030381529060405280519060200120846040516020018082805190602001908083835b602083101515610d9c5780518252602082019150602081019050602083039250610d77565b6001836020036101000a03801982511681845116808217855250505050505090500191505060405160208183030381529060405280519060200120148015610e9c575060405160200180807f706f70756c617200000000000000000000000000000000000000000000000000815250600701905060405160208183030381529060405280519060200120836040516020018082805190602001908083835b602083101515610e5f5780518252602082019150602081019050602083039250610e3a565b6001836020036101000a03801982511681845116808217855250505050505090500191505060405160208183030381529060405280519060200120145b15610eb25760005460040260008190555061150a565b60405160200180807f46756c6c20484400000000000000000000000000000000000000000000000000815250600701905060405160208183030381529060405280519060200120846040516020018082805190602001908083835b602083101515610f325780518252602082019150602081019050602083039250610f0d565b6001836020036101000a03801982511681845116808217855250505050505090500191505060405160208183030381529060405280519060200120148015611032575060405160200180807f7665727920706f70756c61720000000000000000000000000000000000000000815250600c01905060405160208183030381529060405280519060200120836040516020018082805190602001908083835b602083101515610ff55780518252602082019150602081019050602083039250610fd0565b6001836020036101000a03801982511681845116808217855250505050505090500191505060405160208183030381529060405280519060200120145b1561104857600054600502600081905550611509565b60405160200180807f344b000000000000000000000000000000000000000000000000000000000000815250600201905060405160208183030381529060405280519060200120846040516020018082805190602001908083835b6020831015156110c857805182526020820191506020810190506020830392506110a3565b6001836020036101000a038019825116818451168082178552505050505050905001915050604051602081830303815290604052805190602001201480156111c8575060405160200180807f6e6f7420706f70756c6172000000000000000000000000000000000000000000815250600b01905060405160208183030381529060405280519060200120836040516020018082805190602001908083835b60208310151561118b5780518252602082019150602081019050602083039250611166565b6001836020036101000a03801982511681845116808217855250505050505090500191505060405160208183030381529060405280519060200120145b156111de57600054600402600081905550611508565b60405160200180807f344b000000000000000000000000000000000000000000000000000000000000815250600201905060405160208183030381529060405280519060200120846040516020018082805190602001908083835b60208310151561125e5780518252602082019150602081019050602083039250611239565b6001836020036101000a0380198251168184511680821785525050505050509050019150506040516020818303038152906040528051906020012014801561135e575060405160200180807f706f70756c617200000000000000000000000000000000000000000000000000815250600701905060405160208183030381529060405280519060200120836040516020018082805190602001908083835b60208310151561132157805182526020820191506020810190506020830392506112fc565b6001836020036101000a03801982511681845116808217855250505050505090500191505060405160208183030381529060405280519060200120145b1561137457600054600502600081905550611507565b60405160200180807f344b000000000000000000000000000000000000000000000000000000000000815250600201905060405160208183030381529060405280519060200120846040516020018082805190602001908083835b6020831015156113f457805182526020820191506020810190506020830392506113cf565b6001836020036101000a038019825116818451168082178552505050505050905001915050604051602081830303815290604052805190602001201480156114f4575060405160200180807f7665727920706f70756c61720000000000000000000000000000000000000000815250600c01905060405160208183030381529060405280519060200120836040516020018082805190602001908083835b6020831015156114b75780518252602082019150602081019050602083039250611492565b6001836020036101000a03801982511681845116808217855250505050505090500191505060405160208183030381529060405280519060200120145b15611506576000546006026000819055505b5b5b5b5b5b5b5b5b5b5b5b60005490509392505050565b6000805490509056fea165627a7a723058206fa740da58c3f36f2b922f41d77ed5f4333547bf5b7fa59f4f4d95c238ce9ffc0029",
  "source": "pragma solidity 0.5.0;\n\ncontract vid_sale_receipt{\n    uint vid_sale_price;\n    event receipt_generated(uint _vidPrice);\n    \n    function receiptGeneration(string memory _vidResolution,string memory _vidpopularity,uint _vidSalePrice) public returns(uint)\n    {\n        vid_sale_price=_vidSalePrice;\n        \n        //compare the hash of strings to compare the strings(no direct comparision in solidity)\n        \n        if (keccak256(abi.encodePacked(_vidResolution)) == keccak256(abi.encodePacked('SD')) && keccak256(abi.encodePacked(_vidpopularity)) == keccak256(abi.encodePacked('not popular')))\n        {\n            vid_sale_price = 1 * vid_sale_price ;\n        }\n        \n        else if (keccak256(abi.encodePacked(_vidResolution)) == keccak256(abi.encodePacked('SD')) && keccak256(abi.encodePacked(_vidpopularity)) == keccak256(abi.encodePacked('popular')))\n        {\n            vid_sale_price = 2 * vid_sale_price ;\n        }\n        \n        else if (keccak256(abi.encodePacked(_vidResolution)) == keccak256(abi.encodePacked('SD')) && keccak256(abi.encodePacked(_vidpopularity)) == keccak256(abi.encodePacked('very popular')))\n        {\n            vid_sale_price = 3 * vid_sale_price ;\n        }\n        \n        else if (keccak256(abi.encodePacked(_vidResolution)) == keccak256(abi.encodePacked('HD')) && keccak256(abi.encodePacked(_vidpopularity)) == keccak256(abi.encodePacked('not popular')))\n        {\n            vid_sale_price = 2 * vid_sale_price ;\n        }\n        else if (keccak256(abi.encodePacked(_vidResolution)) == keccak256(abi.encodePacked('HD')) && keccak256(abi.encodePacked(_vidpopularity)) == keccak256(abi.encodePacked('popular')))\n        {\n            vid_sale_price = 3 * vid_sale_price ;\n        }\n        else if (keccak256(abi.encodePacked(_vidResolution)) == keccak256(abi.encodePacked('HD')) && keccak256(abi.encodePacked(_vidpopularity)) == keccak256(abi.encodePacked('very popular')))\n        {\n            vid_sale_price = 4 * vid_sale_price ;\n        }\n        else if(keccak256(abi.encodePacked(_vidResolution)) == keccak256(abi.encodePacked('Full HD'))&& keccak256(abi.encodePacked(_vidpopularity)) == keccak256(abi.encodePacked('not popular')))\n        {\n             vid_sale_price = 3 * vid_sale_price ;\n        }\n        else if(keccak256(abi.encodePacked(_vidResolution)) == keccak256(abi.encodePacked('Full HD'))&& keccak256(abi.encodePacked(_vidpopularity)) == keccak256(abi.encodePacked('popular')))\n        {\n             vid_sale_price = 4 * vid_sale_price ;\n        }\n        else if(keccak256(abi.encodePacked(_vidResolution)) == keccak256(abi.encodePacked('Full HD'))&& keccak256(abi.encodePacked(_vidpopularity)) == keccak256(abi.encodePacked('very popular')))\n        {\n             vid_sale_price = 5 * vid_sale_price ;\n        }\n        \n        else if(keccak256(abi.encodePacked(_vidResolution)) == keccak256(abi.encodePacked('4K')) && keccak256(abi.encodePacked(_vidpopularity)) == keccak256(abi.encodePacked('not popular')))\n        {\n            vid_sale_price = 4 * vid_sale_price ;\n        }\n        else if(keccak256(abi.encodePacked(_vidResolution)) == keccak256(abi.encodePacked('4K')) && keccak256(abi.encodePacked(_vidpopularity)) == keccak256(abi.encodePacked('popular')))\n        {\n            vid_sale_price = 5 * vid_sale_price ;\n        }\n        else if(keccak256(abi.encodePacked(_vidResolution)) == keccak256(abi.encodePacked('4K')) && keccak256(abi.encodePacked(_vidpopularity)) == keccak256(abi.encodePacked('very popular')))\n        {\n            vid_sale_price = 6 * vid_sale_price ;\n        }\n        \n        return(vid_sale_price);\n        \n        emit receipt_generated(vid_sale_price);\n    }\n    function getPrice() public view returns(uint){\n        return(vid_sale_price);\n    }\n\n}",
  "sourcePath": "/home/syrine/pfe_project_code/contracts/vid_sale_receipt.sol",
  "compiler": {
    "name": "solc",
    "version": "0.5.0+commit.1d4f565a.Emscripten.clang"
  },
  "schemaVersion": "3.0.1",
  "updatedAt": "2021-06-12T18:48:36.105Z",
  "devdoc": {
    "methods": {}
  },
  "userdoc": {
    "methods": {}
  }
}