{
  "contractName": "VideoAddedValueRecord",
  "abi": [
    {
      "constant": false,
      "inputs": [
        {
          "name": "extracted_vid_hash",
          "type": "uint256[]"
        },
        {
          "name": "extracted_vid_ads",
          "type": "uint256[]"
        },
        {
          "name": "extracted_vid_sub",
          "type": "uint8[]"
        },
        {
          "name": "extracted_vid_trans",
          "type": "uint8[]"
        },
        {
          "name": "extracted_vid_mrk",
          "type": "uint8[]"
        }
      ],
      "name": "fill_vidFeatures",
      "outputs": [],
      "payable": false,
      "stateMutability": "nonpayable",
      "type": "function",
      "signature": "0x11f4ebe8"
    },
    {
      "constant": true,
      "inputs": [],
      "name": "getAllVidHash",
      "outputs": [
        {
          "name": "",
          "type": "uint256[]"
        }
      ],
      "payable": false,
      "stateMutability": "view",
      "type": "function",
      "signature": "0x64071db0"
    },
    {
      "constant": true,
      "inputs": [],
      "name": "getAllVidAds",
      "outputs": [
        {
          "name": "",
          "type": "uint256[]"
        }
      ],
      "payable": false,
      "stateMutability": "view",
      "type": "function",
      "signature": "0x7221dd1e"
    },
    {
      "constant": true,
      "inputs": [],
      "name": "getAllVidSub",
      "outputs": [
        {
          "name": "",
          "type": "uint8[]"
        }
      ],
      "payable": false,
      "stateMutability": "view",
      "type": "function",
      "signature": "0xcac5bdcc"
    },
    {
      "constant": true,
      "inputs": [],
      "name": "getAllVidTrans",
      "outputs": [
        {
          "name": "",
          "type": "uint8[]"
        }
      ],
      "payable": false,
      "stateMutability": "view",
      "type": "function",
      "signature": "0x4a913e28"
    },
    {
      "constant": true,
      "inputs": [],
      "name": "getAllVidMrk",
      "outputs": [
        {
          "name": "",
          "type": "uint8[]"
        }
      ],
      "payable": false,
      "stateMutability": "view",
      "type": "function",
      "signature": "0x547a054f"
    },
    {
      "constant": false,
      "inputs": [
        {
          "name": "new_vid_hash",
          "type": "uint256"
        },
        {
          "name": "new_vid_sub",
          "type": "uint8"
        }
      ],
      "name": "addNewSub",
      "outputs": [
        {
          "name": "",
          "type": "uint256[]"
        },
        {
          "name": "",
          "type": "uint256[]"
        },
        {
          "name": "",
          "type": "uint8[]"
        },
        {
          "name": "",
          "type": "uint8[]"
        },
        {
          "name": "",
          "type": "uint8[]"
        }
      ],
      "payable": false,
      "stateMutability": "nonpayable",
      "type": "function",
      "signature": "0x39bfa0e8"
    },
    {
      "constant": false,
      "inputs": [
        {
          "name": "new_vid_hash",
          "type": "uint256"
        },
        {
          "name": "new_vid_trans",
          "type": "uint8"
        }
      ],
      "name": "addNewTrans",
      "outputs": [
        {
          "name": "",
          "type": "uint256[]"
        },
        {
          "name": "",
          "type": "uint256[]"
        },
        {
          "name": "",
          "type": "uint8[]"
        },
        {
          "name": "",
          "type": "uint8[]"
        },
        {
          "name": "",
          "type": "uint8[]"
        }
      ],
      "payable": false,
      "stateMutability": "nonpayable",
      "type": "function",
      "signature": "0x1c354588"
    },
    {
      "constant": false,
      "inputs": [
        {
          "name": "new_vid_hash",
          "type": "uint256"
        },
        {
          "name": "new_vid_mrk",
          "type": "uint8"
        }
      ],
      "name": "addNewMrk",
      "outputs": [
        {
          "name": "",
          "type": "uint256[]"
        },
        {
          "name": "",
          "type": "uint256[]"
        },
        {
          "name": "",
          "type": "uint8[]"
        },
        {
          "name": "",
          "type": "uint8[]"
        },
        {
          "name": "",
          "type": "uint8[]"
        }
      ],
      "payable": false,
      "stateMutability": "nonpayable",
      "type": "function",
      "signature": "0x15ebc6e7"
    },
    {
      "constant": false,
      "inputs": [
        {
          "name": "new_vid_hash",
          "type": "uint256"
        }
      ],
      "name": "addNewAd",
      "outputs": [
        {
          "name": "",
          "type": "uint256[]"
        },
        {
          "name": "",
          "type": "uint256[]"
        },
        {
          "name": "",
          "type": "uint8[]"
        },
        {
          "name": "",
          "type": "uint8[]"
        },
        {
          "name": "",
          "type": "uint8[]"
        }
      ],
      "payable": false,
      "stateMutability": "nonpayable",
      "type": "function",
      "signature": "0xba062d57"
    }
  ],
  "bytecode": "0x608060405234801561001057600080fd5b506120bf806100206000396000f3fe6080604052600436106100a4576000357c0100000000000000000000000000000000000000000000000000000000900463ffffffff16806311f4ebe8146100a957806315ebc6e7146103be5780631c3545881461057b57806339bfa0e8146107385780634a913e28146108f5578063547a054f1461096157806364071db0146109cd5780637221dd1e14610a39578063ba062d5714610aa5578063cac5bdcc14610c55575b600080fd5b3480156100b557600080fd5b506103bc600480360360a08110156100cc57600080fd5b81019080803590602001906401000000008111156100e957600080fd5b8201836020820111156100fb57600080fd5b8035906020019184602083028401116401000000008311171561011d57600080fd5b919080806020026020016040519081016040528093929190818152602001838360200280828437600081840152601f19601f8201169050808301925050505050505091929192908035906020019064010000000081111561017d57600080fd5b82018360208201111561018f57600080fd5b803590602001918460208302840111640100000000831117156101b157600080fd5b919080806020026020016040519081016040528093929190818152602001838360200280828437600081840152601f19601f8201169050808301925050505050505091929192908035906020019064010000000081111561021157600080fd5b82018360208201111561022357600080fd5b8035906020019184602083028401116401000000008311171561024557600080fd5b919080806020026020016040519081016040528093929190818152602001838360200280828437600081840152601f19601f820116905080830192505050505050509192919290803590602001906401000000008111156102a557600080fd5b8201836020820111156102b757600080fd5b803590602001918460208302840111640100000000831117156102d957600080fd5b919080806020026020016040519081016040528093929190818152602001838360200280828437600081840152601f19601f8201169050808301925050505050505091929192908035906020019064010000000081111561033957600080fd5b82018360208201111561034b57600080fd5b8035906020019184602083028401116401000000008311171561036d57600080fd5b919080806020026020016040519081016040528093929190818152602001838360200280828437600081840152601f19601f820116905080830192505050505050509192919290505050610cc1565b005b3480156103ca57600080fd5b50610404600480360360408110156103e157600080fd5b8101908080359060200190929190803560ff169060200190929190505050610d3b565b60405180806020018060200180602001806020018060200186810386528b818151815260200191508051906020019060200280838360005b8381101561045757808201518184015260208101905061043c565b5050505090500186810385528a818151815260200191508051906020019060200280838360005b8381101561049957808201518184015260208101905061047e565b50505050905001868103845289818151815260200191508051906020019060200280838360005b838110156104db5780820151818401526020810190506104c0565b50505050905001868103835288818151815260200191508051906020019060200280838360005b8381101561051d578082015181840152602081019050610502565b50505050905001868103825287818151815260200191508051906020019060200280838360005b8381101561055f578082015181840152602081019050610544565b505050509050019a505050505050505050505060405180910390f35b34801561058757600080fd5b506105c16004803603604081101561059e57600080fd5b8101908080359060200190929190803560ff1690602001909291905050506110f4565b60405180806020018060200180602001806020018060200186810386528b818151815260200191508051906020019060200280838360005b838110156106145780820151818401526020810190506105f9565b5050505090500186810385528a818151815260200191508051906020019060200280838360005b8381101561065657808201518184015260208101905061063b565b50505050905001868103845289818151815260200191508051906020019060200280838360005b8381101561069857808201518184015260208101905061067d565b50505050905001868103835288818151815260200191508051906020019060200280838360005b838110156106da5780820151818401526020810190506106bf565b50505050905001868103825287818151815260200191508051906020019060200280838360005b8381101561071c578082015181840152602081019050610701565b505050509050019a505050505050505050505060405180910390f35b34801561074457600080fd5b5061077e6004803603604081101561075b57600080fd5b8101908080359060200190929190803560ff1690602001909291905050506114ad565b60405180806020018060200180602001806020018060200186810386528b818151815260200191508051906020019060200280838360005b838110156107d15780820151818401526020810190506107b6565b5050505090500186810385528a818151815260200191508051906020019060200280838360005b838110156108135780820151818401526020810190506107f8565b50505050905001868103845289818151815260200191508051906020019060200280838360005b8381101561085557808201518184015260208101905061083a565b50505050905001868103835288818151815260200191508051906020019060200280838360005b8381101561089757808201518184015260208101905061087c565b50505050905001868103825287818151815260200191508051906020019060200280838360005b838110156108d95780820151818401526020810190506108be565b505050509050019a505050505050505050505060405180910390f35b34801561090157600080fd5b5061090a611866565b6040518080602001828103825283818151815260200191508051906020019060200280838360005b8381101561094d578082015181840152602081019050610932565b505050509050019250505060405180910390f35b34801561096d57600080fd5b506109766118ec565b6040518080602001828103825283818151815260200191508051906020019060200280838360005b838110156109b957808201518184015260208101905061099e565b505050509050019250505060405180910390f35b3480156109d957600080fd5b506109e2611972565b6040518080602001828103825283818151815260200191508051906020019060200280838360005b83811015610a25578082015181840152602081019050610a0a565b505050509050019250505060405180910390f35b348015610a4557600080fd5b50610a4e6119ca565b6040518080602001828103825283818151815260200191508051906020019060200280838360005b83811015610a91578082015181840152602081019050610a76565b505050509050019250505060405180910390f35b348015610ab157600080fd5b50610ade60048036036020811015610ac857600080fd5b8101908080359060200190929190505050611a22565b60405180806020018060200180602001806020018060200186810386528b818151815260200191508051906020019060200280838360005b83811015610b31578082015181840152602081019050610b16565b5050505090500186810385528a818151815260200191508051906020019060200280838360005b83811015610b73578082015181840152602081019050610b58565b50505050905001868103845289818151815260200191508051906020019060200280838360005b83811015610bb5578082015181840152602081019050610b9a565b50505050905001868103835288818151815260200191508051906020019060200280838360005b83811015610bf7578082015181840152602081019050610bdc565b50505050905001868103825287818151815260200191508051906020019060200280838360005b83811015610c39578082015181840152602081019050610c1e565b505050509050019a505050505050505050505060405180910390f35b348015610c6157600080fd5b50610c6a611ddd565b6040518080602001828103825283818151815260200191508051906020019060200280838360005b83811015610cad578082015181840152602081019050610c92565b505050509050019250505060405180910390f35b8460009080519060200190610cd7929190611e63565b508360019080519060200190610cee929190611e63565b508260029080519060200190610d05929190611eb0565b508160039080519060200190610d1c929190611eb0565b508060049080519060200190610d33929190611f5f565b505050505050565b6060806060806060600087908060018154018082558091505090600182039060005260206000200160009091929091909150555060006001808054905003905060018082815481101515610d8b57fe5b9060005260206000200154908060018154018082558091505090600182039060005260206000200160009091929091909150555060026000908060018154018082558091505090600182039060005260206000209060209182820401919006909192909190916101000a81548160ff02191690836003811115610e0a57fe5b02179055505060036000908060018154018082558091505090600182039060005260206000209060209182820401919006909192909190916101000a81548160ff02191690836003811115610e5b57fe5b021790555050600487908060018154018082558091505090600182039060005260206000209060209182820401919006909192909190916101000a81548160ff02191690836003811115610eab57fe5b0217905550506000600160026003600484805480602002602001604051908101604052809291908181526020018280548015610f0657602002820191906000526020600020905b815481526020019060010190808311610ef2575b5050505050945083805480602002602001604051908101604052809291908181526020018280548015610f5857602002820191906000526020600020905b815481526020019060010190808311610f44575b5050505050935082805480602002602001604051908101604052809291908181526020018280548015610fd857602002820191906000526020600020906000905b82829054906101000a900460ff166003811115610fb257fe5b81526020019060010190602082600001049283019260010382029150808411610f995790505b505050505092508180548060200260200160405190810160405280929190818152602001828054801561105857602002820191906000526020600020906000905b82829054906101000a900460ff16600381111561103257fe5b815260200190600101906020826000010492830192600103820291508084116110195790505b50505050509150808054806020026020016040519081016040528092919081815260200182805480156110d857602002820191906000526020600020906000905b82829054906101000a900460ff1660038111156110b257fe5b815260200190600101906020826000010492830192600103820291508084116110995790505b5050505050905095509550955095509550509295509295909350565b606080606080606060008790806001815401808255809150509060018203906000526020600020016000909192909190915055506000600180805490500390506001808281548110151561114457fe5b9060005260206000200154908060018154018082558091505090600182039060005260206000200160009091929091909150555060026000908060018154018082558091505090600182039060005260206000209060209182820401919006909192909190916101000a81548160ff021916908360038111156111c357fe5b021790555050600387908060018154018082558091505090600182039060005260206000209060209182820401919006909192909190916101000a81548160ff0219169083600381111561121357fe5b02179055505060046000908060018154018082558091505090600182039060005260206000209060209182820401919006909192909190916101000a81548160ff0219169083600381111561126457fe5b02179055505060006001600260036004848054806020026020016040519081016040528092919081815260200182805480156112bf57602002820191906000526020600020905b8154815260200190600101908083116112ab575b505050505094508380548060200260200160405190810160405280929190818152602001828054801561131157602002820191906000526020600020905b8154815260200190600101908083116112fd575b505050505093508280548060200260200160405190810160405280929190818152602001828054801561139157602002820191906000526020600020906000905b82829054906101000a900460ff16600381111561136b57fe5b815260200190600101906020826000010492830192600103820291508084116113525790505b505050505092508180548060200260200160405190810160405280929190818152602001828054801561141157602002820191906000526020600020906000905b82829054906101000a900460ff1660038111156113eb57fe5b815260200190600101906020826000010492830192600103820291508084116113d25790505b505050505091508080548060200260200160405190810160405280929190818152602001828054801561149157602002820191906000526020600020906000905b82829054906101000a900460ff16600381111561146b57fe5b815260200190600101906020826000010492830192600103820291508084116114525790505b5050505050905095509550955095509550509295509295909350565b60608060608060606000879080600181540180825580915050906001820390600052602060002001600090919290919091505550600060018080549050039050600180828154811015156114fd57fe5b90600052602060002001549080600181540180825580915050906001820390600052602060002001600090919290919091505550600287908060018154018082558091505090600182039060005260206000209060209182820401919006909192909190916101000a81548160ff0219169083600381111561157b57fe5b02179055505060036000908060018154018082558091505090600182039060005260206000209060209182820401919006909192909190916101000a81548160ff021916908360038111156115cc57fe5b02179055505060046000908060018154018082558091505090600182039060005260206000209060209182820401919006909192909190916101000a81548160ff0219169083600381111561161d57fe5b021790555050600060016002600360048480548060200260200160405190810160405280929190818152602001828054801561167857602002820191906000526020600020905b815481526020019060010190808311611664575b50505050509450838054806020026020016040519081016040528092919081815260200182805480156116ca57602002820191906000526020600020905b8154815260200190600101908083116116b6575b505050505093508280548060200260200160405190810160405280929190818152602001828054801561174a57602002820191906000526020600020906000905b82829054906101000a900460ff16600381111561172457fe5b8152602001906001019060208260000104928301926001038202915080841161170b5790505b50505050509250818054806020026020016040519081016040528092919081815260200182805480156117ca57602002820191906000526020600020906000905b82829054906101000a900460ff1660038111156117a457fe5b8152602001906001019060208260000104928301926001038202915080841161178b5790505b505050505091508080548060200260200160405190810160405280929190818152602001828054801561184a57602002820191906000526020600020906000905b82829054906101000a900460ff16600381111561182457fe5b8152602001906001019060208260000104928301926001038202915080841161180b5790505b5050505050905095509550955095509550509295509295909350565b606060038054806020026020016040519081016040528092919081815260200182805480156118e257602002820191906000526020600020906000905b82829054906101000a900460ff1660038111156118bc57fe5b815260200190600101906020826000010492830192600103820291508084116118a35790505b5050505050905090565b6060600480548060200260200160405190810160405280929190818152602001828054801561196857602002820191906000526020600020906000905b82829054906101000a900460ff16600381111561194257fe5b815260200190600101906020826000010492830192600103820291508084116119295790505b5050505050905090565b606060008054806020026020016040519081016040528092919081815260200182805480156119c057602002820191906000526020600020905b8154815260200190600101908083116119ac575b5050505050905090565b60606001805480602002602001604051908101604052809291908181526020018280548015611a1857602002820191906000526020600020905b815481526020019060010190808311611a04575b5050505050905090565b606080606080606060008690806001815401808255809150509060018203906000526020600020016000909192909190915055506000600180805490500390506001808083815481101515611a7357fe5b906000526020600020015401908060018154018082558091505090600182039060005260206000200160009091929091909150555060026000908060018154018082558091505090600182039060005260206000209060209182820401919006909192909190916101000a81548160ff02191690836003811115611af357fe5b02179055505060036000908060018154018082558091505090600182039060005260206000209060209182820401919006909192909190916101000a81548160ff02191690836003811115611b4457fe5b02179055505060046000908060018154018082558091505090600182039060005260206000209060209182820401919006909192909190916101000a81548160ff02191690836003811115611b9557fe5b0217905550506000600160026003600484805480602002602001604051908101604052809291908181526020018280548015611bf057602002820191906000526020600020905b815481526020019060010190808311611bdc575b5050505050945083805480602002602001604051908101604052809291908181526020018280548015611c4257602002820191906000526020600020905b815481526020019060010190808311611c2e575b5050505050935082805480602002602001604051908101604052809291908181526020018280548015611cc257602002820191906000526020600020906000905b82829054906101000a900460ff166003811115611c9c57fe5b81526020019060010190602082600001049283019260010382029150808411611c835790505b5050505050925081805480602002602001604051908101604052809291908181526020018280548015611d4257602002820191906000526020600020906000905b82829054906101000a900460ff166003811115611d1c57fe5b81526020019060010190602082600001049283019260010382029150808411611d035790505b5050505050915080805480602002602001604051908101604052809291908181526020018280548015611dc257602002820191906000526020600020906000905b82829054906101000a900460ff166003811115611d9c57fe5b81526020019060010190602082600001049283019260010382029150808411611d835790505b50505050509050955095509550955095505091939590929450565b60606002805480602002602001604051908101604052809291908181526020018280548015611e5957602002820191906000526020600020906000905b82829054906101000a900460ff166003811115611e3357fe5b81526020019060010190602082600001049283019260010382029150808411611e1a5790505b5050505050905090565b828054828255906000526020600020908101928215611e9f579160200282015b82811115611e9e578251825591602001919060010190611e83565b5b509050611eac919061200e565b5090565b82805482825590600052602060002090601f01602090048101928215611f4e5791602002820160005b83821115611f1f57835183826101000a81548160ff02191690836003811115611efe57fe5b02179055509260200192600101602081600001049283019260010302611ed9565b8015611f4c5782816101000a81549060ff0219169055600101602081600001049283019260010302611f1f565b505b509050611f5b9190612033565b5090565b82805482825590600052602060002090601f01602090048101928215611ffd5791602002820160005b83821115611fce57835183826101000a81548160ff02191690836003811115611fad57fe5b02179055509260200192600101602081600001049283019260010302611f88565b8015611ffb5782816101000a81549060ff0219169055600101602081600001049283019260010302611fce565b505b50905061200a9190612063565b5090565b61203091905b8082111561202c576000816000905550600101612014565b5090565b90565b61206091905b8082111561205c57600081816101000a81549060ff021916905550600101612039565b5090565b90565b61209091905b8082111561208c57600081816101000a81549060ff021916905550600101612069565b5090565b9056fea165627a7a723058207a9ce39e3f05fc647c09c8bbef152a857aab7a5910d79aff1baeb417a422a5ea0029",
  "source": "pragma solidity 0.5.0;\n// this contract will be executed after a vid has been worked on by a freelancer who added a value to it \n//and his work has been approved by producer and new video with added value is uploaded to public \n\ncontract VideoAddedValueRecord{\n// enum input must be by index and mahdi needs to translate \n//because to get name of enum you need to set/assign it or I am taking it as input from mahdi\n    enum language{nothing,english,french,arabic}\n    \n    enum marketing {nothing,SEO,intro,end}\n    \n//independent arrays cause functions in solidity still can not get struct as arg or return themm\n    uint[]  vid_hash;\n//array that contains the nbr of ads that a video contain\n    uint[]  vid_ads;\n//array f type enum because solidity still doesn't support string arrays as arg or output \n    language[]  vid_subtitles;\n    language[]  vid_translation;\n    marketing[]  vid_Marketing;\n    \n    \n    function fill_vidFeatures(uint[] memory extracted_vid_hash, uint[] memory extracted_vid_ads, language[] memory extracted_vid_sub, language[] memory extracted_vid_trans, marketing[] memory extracted_vid_mrk) public \n    {\n//extract the vid features received from mahdi into a local storage variable\n//to be able to manipulate it and berform the necessary controls ( can't work on memory var)\n\n        vid_hash = extracted_vid_hash;\n        vid_ads = extracted_vid_ads;\n        vid_subtitles = extracted_vid_sub;\n        vid_translation = extracted_vid_trans;\n        vid_Marketing = extracted_vid_mrk;\n\n//extract the array that contains the history of feautures of video and translate the input in uint into the enum\n\n        /*for ( uint i = 0 ; i<extracted_vid_sub.length ; i++){\n            if(extracted_vid_sub[i] == 0)\n            {\n                vid_subtitles.push(language.nothing);\n            }\n            else if ( extracted_vid_sub[i] == 1)\n            {\n                vid_subtitles.push(language.english);\n            }\n             else if ( extracted_vid_sub[i] == 2)\n            {\n                vid_subtitles.push(language.french);\n            }\n            else if ( extracted_vid_sub[i] == 3)\n            {\n                vid_subtitles.push(language.arabic);\n            }\n        }\n         for ( uint i = 0 ; i<extracted_vid_trans.length ; i++){\n            if(extracted_vid_trans[i] == 0)\n            {\n                vid_translation.push(language.nothing);\n            }\n            else if ( extracted_vid_trans[i] == 1)\n            {\n                vid_translation.push(language.english);\n            }\n             else if ( extracted_vid_trans[i] == 2)\n            {\n                vid_translation.push(language.french);\n            }\n            else if ( extracted_vid_trans[i] == 3)\n            {\n                vid_translation.push(language.arabic);\n            }\n        }\n                 for ( uint i = 0 ; i<extracted_vid_mrk.length ; i++){\n            if(extracted_vid_mrk[i] == 0)\n            {\n                vid_Marketing.push(marketing.nothing);\n            }\n            else if ( extracted_vid_mrk[i] == 1)\n            {\n                vid_Marketing.push(marketing.SEO);\n            }\n             else if ( extracted_vid_mrk[i] == 2)\n            {\n                vid_Marketing.push(marketing.intro);\n            }\n            else if ( extracted_vid_mrk[i] == 3)\n            {\n                vid_Marketing.push(marketing.end);\n            }\n        }*/\n        \n\n    }\n    // print/get all the feautures of specific vid\n\n    function getAllVidHash() public view returns (uint[] memory){\n        return(vid_hash);\n    }function getAllVidAds() public view returns ( uint[] memory){\n        return(vid_ads);\n    }function getAllVidSub() public view returns ( language[] memory){\n        return(vid_subtitles );\n    }function getAllVidTrans() public view returns (language[] memory){\n        return(vid_translation);\n    }function getAllVidMrk() public view returns (marketing[] memory){\n        return(vid_Marketing);\n    }\n    // function to add a new feature of a specific vid \n    function addNewSub(uint new_vid_hash, language new_vid_sub) public \n    returns(uint[] memory, uint[] memory, language[] memory, language[] memory, marketing[] memory)\n    {\n    vid_hash.push(new_vid_hash);\n        uint lastIndex = vid_ads.length - 1;\n    vid_ads.push(vid_ads[lastIndex]);\n    vid_subtitles.push(new_vid_sub);\n    vid_translation.push(language.nothing);\n    vid_Marketing.push(marketing.nothing);\n        return(vid_hash, vid_ads, vid_subtitles ,vid_translation,vid_Marketing);\n    }\n    function addNewTrans(uint new_vid_hash, language new_vid_trans) public \n    returns(uint[] memory, uint[] memory, language[] memory, language[] memory, marketing[] memory)\n    {\n    vid_hash.push(new_vid_hash);\n        uint lastIndex = vid_ads.length - 1;\n    vid_ads.push(vid_ads[lastIndex]);\n    vid_subtitles.push(language.nothing);\n    vid_translation.push(new_vid_trans);\n    vid_Marketing.push(marketing.nothing);\n        return(vid_hash,vid_ads,vid_subtitles ,vid_translation,vid_Marketing);\n\n    }\n    function addNewMrk(uint new_vid_hash, marketing new_vid_mrk) public \n    returns(uint[] memory, uint[] memory, language[] memory, language[] memory, marketing[] memory)\n    {\n    vid_hash.push(new_vid_hash);\n        uint lastIndex = vid_ads.length - 1;\n    vid_ads.push(vid_ads[lastIndex]);\n    vid_subtitles.push(language.nothing);\n    vid_translation.push(language.nothing);\n    vid_Marketing.push(new_vid_mrk);\n        return(vid_hash,vid_ads,vid_subtitles ,vid_translation,vid_Marketing);\n\n    }\n    function addNewAd(uint new_vid_hash) public \n    returns(uint[] memory, uint[] memory, language[] memory, language[] memory, marketing[] memory)\n    {\n    vid_hash.push(new_vid_hash);\n    uint lastIndex = vid_ads.length - 1;\n    vid_ads.push(vid_ads[lastIndex]+1);\n    vid_subtitles.push(language.nothing);\n    vid_translation.push(language.nothing);\n    vid_Marketing.push(marketing.nothing);\n        return(vid_hash,vid_ads,vid_subtitles ,vid_translation,vid_Marketing);\n\n    }\n}\n",
  "sourcePath": "/home/syrine/pfe_project_code/contracts/VideoAddedValueRecord.sol",
  "compiler": {
    "name": "solc",
    "version": "0.5.0+commit.1d4f565a.Emscripten.clang"
  },
  "schemaVersion": "3.0.1",
  "updatedAt": "2021-06-20T00:48:43.671Z",
  "devdoc": {
    "methods": {}
  },
  "userdoc": {
    "methods": {}
  }
}